{
  "_format": "hh3-artifact-1",
  "contractName": "Voucher",
  "sourceName": "contracts/Voucher.sol",
  "abi": [
    {
      "inputs": [
        {
          "internalType": "address",
          "name": "_token",
          "type": "address"
        }
      ],
      "stateMutability": "nonpayable",
      "type": "constructor"
    },
    {
      "inputs": [
        {
          "internalType": "bytes32",
          "name": "code",
          "type": "bytes32"
        },
        {
          "internalType": "uint256",
          "name": "amount",
          "type": "uint256"
        }
      ],
      "name": "issueVoucher",
      "outputs": [],
      "stateMutability": "nonpayable",
      "type": "function"
    },
    {
      "inputs": [
        {
          "internalType": "bytes32",
          "name": "code",
          "type": "bytes32"
        }
      ],
      "name": "redeemVoucher",
      "outputs": [],
      "stateMutability": "nonpayable",
      "type": "function"
    },
    {
      "inputs": [],
      "name": "rewardToken",
      "outputs": [
        {
          "internalType": "contract IERC20",
          "name": "",
          "type": "address"
        }
      ],
      "stateMutability": "view",
      "type": "function"
    },
    {
      "inputs": [
        {
          "internalType": "bytes32",
          "name": "",
          "type": "bytes32"
        }
      ],
      "name": "usedVouchers",
      "outputs": [
        {
          "internalType": "bool",
          "name": "",
          "type": "bool"
        }
      ],
      "stateMutability": "view",
      "type": "function"
    },
    {
      "inputs": [
        {
          "internalType": "bytes32",
          "name": "",
          "type": "bytes32"
        }
      ],
      "name": "voucherAmounts",
      "outputs": [
        {
          "internalType": "uint256",
          "name": "",
          "type": "uint256"
        }
      ],
      "stateMutability": "view",
      "type": "function"
    }
  ],
  "bytecode": "0x6080604052348015600e575f5ffd5b5060405161040a38038061040a833981016040819052602b91604e565b5f80546001600160a01b0319166001600160a01b03929092169190911790556079565b5f60208284031215605d575f5ffd5b81516001600160a01b03811681146072575f5ffd5b9392505050565b610384806100865f395ff3fe608060405234801561000f575f5ffd5b5060043610610055575f3560e01c80638d20fa55146100595780638f807a371461008b578063bfa556e4146100a0578063c2e9f5ab146100d2578063f7c618c1146100e5575b5f5ffd5b6100786100673660046102f1565b60016020525f908152604090205481565b6040519081526020015b60405180910390f35b61009e610099366004610308565b61010f565b005b6100c26100ae3660046102f1565b60026020525f908152604090205460ff1681565b6040519015158152602001610082565b61009e6100e03660046102f1565b610179565b5f546100f7906001600160a01b031681565b6040516001600160a01b039091168152602001610082565b5f82815260016020526040902054156101685760405162461bcd60e51b8152602060048201526016602482015275159bdd58da195c88185b1c9958591e481a5cdcdd595960521b60448201526064015b60405180910390fd5b5f9182526001602052604090912055565b5f8181526001602090815260408083205460029092529091205460ff16156101da5760405162461bcd60e51b8152602060048201526014602482015273159bdd58da195c88185b1c9958591e481d5cd95960621b604482015260640161015f565b5f81116102205760405162461bcd60e51b8152602060048201526014602482015273496e76616c696420766f756368657220636f646560601b604482015260640161015f565b5f82815260026020526040808220805460ff191660011790559054905163a9059cbb60e01b8152336004820152602481018390526001600160a01b039091169063a9059cbb906044016020604051808303815f875af1158015610285573d5f5f3e3d5ffd5b505050506040513d601f19601f820116820180604052508101906102a99190610328565b6102ed5760405162461bcd60e51b8152602060048201526015602482015274151bdad95b881d1c985b9cd9995c8819985a5b1959605a1b604482015260640161015f565b5050565b5f60208284031215610301575f5ffd5b5035919050565b5f5f60408385031215610319575f5ffd5b50508035926020909101359150565b5f60208284031215610338575f5ffd5b81518015158114610347575f5ffd5b939250505056fea2646970667358221220a9cd3d21159dd1ce06555b6f35692ad036865044a588f20f51db5bc7c792ea6964736f6c634300081c0033",
  "linkReferences": {},
  "deployedLinkReferences": {},
  "immutableReferences": {},
  "inputSourceName": "project/contracts/Voucher.sol",
  "buildInfoId": "solc-0_8_28-82cfc6911323e4cfbdfc9d84b5f42b96e747a033"
}