{
  "_format": "hh3-artifact-1",
  "contractName": "BatchCallAndSponsor",
  "sourceName": "contracts/BatchCallAndSponsor.sol",
  "abi": [
    {
      "inputs": [
        {
          "internalType": "address",
          "name": "target",
          "type": "address"
        }
      ],
      "name": "AddressEmptyCode",
      "type": "error"
    },
    {
      "inputs": [],
      "name": "ECDSAInvalidSignature",
      "type": "error"
    },
    {
      "inputs": [
        {
          "internalType": "uint256",
          "name": "length",
          "type": "uint256"
        }
      ],
      "name": "ECDSAInvalidSignatureLength",
      "type": "error"
    },
    {
      "inputs": [
        {
          "internalType": "bytes32",
          "name": "s",
          "type": "bytes32"
        }
      ],
      "name": "ECDSAInvalidSignatureS",
      "type": "error"
    },
    {
      "inputs": [],
      "name": "FailedCall",
      "type": "error"
    },
    {
      "inputs": [
        {
          "internalType": "uint256",
          "name": "balance",
          "type": "uint256"
        },
        {
          "internalType": "uint256",
          "name": "needed",
          "type": "uint256"
        }
      ],
      "name": "InsufficientBalance",
      "type": "error"
    },
    {
      "anonymous": false,
      "inputs": [
        {
          "indexed": true,
          "internalType": "address",
          "name": "msgSender",
          "type": "address"
        },
        {
          "indexed": true,
          "internalType": "address",
          "name": "txOrigin",
          "type": "address"
        },
        {
          "indexed": false,
          "internalType": "uint256",
          "name": "count",
          "type": "uint256"
        }
      ],
      "name": "AddCount",
      "type": "event"
    },
    {
      "anonymous": false,
      "inputs": [
        {
          "indexed": true,
          "internalType": "uint256",
          "name": "nonce",
          "type": "uint256"
        },
        {
          "components": [
            {
              "internalType": "address",
              "name": "to",
              "type": "address"
            },
            {
              "internalType": "uint256",
              "name": "value",
              "type": "uint256"
            },
            {
              "internalType": "bytes",
              "name": "data",
              "type": "bytes"
            }
          ],
          "indexed": false,
          "internalType": "struct BatchCallAndSponsor.Call[]",
          "name": "calls",
          "type": "tuple[]"
        }
      ],
      "name": "BatchExecuted",
      "type": "event"
    },
    {
      "anonymous": false,
      "inputs": [
        {
          "indexed": true,
          "internalType": "address",
          "name": "sender",
          "type": "address"
        },
        {
          "indexed": true,
          "internalType": "address",
          "name": "to",
          "type": "address"
        },
        {
          "indexed": false,
          "internalType": "uint256",
          "name": "value",
          "type": "uint256"
        },
        {
          "indexed": false,
          "internalType": "bytes",
          "name": "data",
          "type": "bytes"
        }
      ],
      "name": "CallExecuted",
      "type": "event"
    },
    {
      "stateMutability": "payable",
      "type": "fallback"
    },
    {
      "inputs": [],
      "name": "addCount",
      "outputs": [],
      "stateMutability": "nonpayable",
      "type": "function"
    },
    {
      "inputs": [
        {
          "internalType": "uint256",
          "name": "_nonce",
          "type": "uint256"
        },
        {
          "components": [
            {
              "internalType": "address",
              "name": "to",
              "type": "address"
            },
            {
              "internalType": "uint256",
              "name": "value",
              "type": "uint256"
            },
            {
              "internalType": "bytes",
              "name": "data",
              "type": "bytes"
            }
          ],
          "internalType": "struct BatchCallAndSponsor.Call[]",
          "name": "calls",
          "type": "tuple[]"
        }
      ],
      "name": "computeBatchDigest",
      "outputs": [
        {
          "internalType": "bytes32",
          "name": "ethSignedMessageHash",
          "type": "bytes32"
        }
      ],
      "stateMutability": "view",
      "type": "function"
    },
    {
      "inputs": [],
      "name": "count",
      "outputs": [
        {
          "internalType": "uint256",
          "name": "",
          "type": "uint256"
        }
      ],
      "stateMutability": "view",
      "type": "function"
    },
    {
      "inputs": [],
      "name": "debugNonceSlot",
      "outputs": [
        {
          "internalType": "bytes32",
          "name": "",
          "type": "bytes32"
        }
      ],
      "stateMutability": "pure",
      "type": "function"
    },
    {
      "inputs": [
        {
          "components": [
            {
              "internalType": "address",
              "name": "to",
              "type": "address"
            },
            {
              "internalType": "uint256",
              "name": "value",
              "type": "uint256"
            },
            {
              "internalType": "bytes",
              "name": "data",
              "type": "bytes"
            }
          ],
          "internalType": "struct BatchCallAndSponsor.Call[]",
          "name": "calls",
          "type": "tuple[]"
        }
      ],
      "name": "execute",
      "outputs": [
        {
          "internalType": "bytes[]",
          "name": "",
          "type": "bytes[]"
        }
      ],
      "stateMutability": "payable",
      "type": "function"
    },
    {
      "inputs": [
        {
          "components": [
            {
              "internalType": "address",
              "name": "to",
              "type": "address"
            },
            {
              "internalType": "uint256",
              "name": "value",
              "type": "uint256"
            },
            {
              "internalType": "bytes",
              "name": "data",
              "type": "bytes"
            }
          ],
          "internalType": "struct BatchCallAndSponsor.Call[]",
          "name": "calls",
          "type": "tuple[]"
        },
        {
          "internalType": "bytes",
          "name": "signature",
          "type": "bytes"
        }
      ],
      "name": "execute",
      "outputs": [],
      "stateMutability": "payable",
      "type": "function"
    },
    {
      "inputs": [],
      "name": "getNonce",
      "outputs": [
        {
          "internalType": "uint256",
          "name": "",
          "type": "uint256"
        }
      ],
      "stateMutability": "view",
      "type": "function"
    },
    {
      "inputs": [
        {
          "internalType": "uint256",
          "name": "_nonce",
          "type": "uint256"
        },
        {
          "components": [
            {
              "internalType": "address",
              "name": "to",
              "type": "address"
            },
            {
              "internalType": "uint256",
              "name": "value",
              "type": "uint256"
            },
            {
              "internalType": "bytes",
              "name": "data",
              "type": "bytes"
            }
          ],
          "internalType": "struct BatchCallAndSponsor.Call[]",
          "name": "calls",
          "type": "tuple[]"
        },
        {
          "internalType": "bytes",
          "name": "signature",
          "type": "bytes"
        }
      ],
      "name": "getRecoveredSignerFromBatch",
      "outputs": [
        {
          "internalType": "address",
          "name": "",
          "type": "address"
        }
      ],
      "stateMutability": "view",
      "type": "function"
    },
    {
      "inputs": [],
      "name": "latestAddressThis",
      "outputs": [
        {
          "internalType": "address",
          "name": "",
          "type": "address"
        }
      ],
      "stateMutability": "view",
      "type": "function"
    },
    {
      "inputs": [],
      "name": "latestSender",
      "outputs": [
        {
          "internalType": "address",
          "name": "",
          "type": "address"
        }
      ],
      "stateMutability": "view",
      "type": "function"
    },
    {
      "inputs": [],
      "name": "latestTxOrigin",
      "outputs": [
        {
          "internalType": "address",
          "name": "",
          "type": "address"
        }
      ],
      "stateMutability": "view",
      "type": "function"
    },
    {
      "stateMutability": "payable",
      "type": "receive"
    }
  ],
  "bytecode": "0x6080604052348015600e575f5ffd5b50610fbe8061001c5f395ff3fe608060405260043610610098575f3560e01c806391f5951c1161006057806391f5951c1461011c5780639b72431814610153578063c604465114610172578063c963cabe14610191578063d087d288146101b0578063e1214815146101c457005b806306661abd1461009a57806311d453d0146100c15780633f707e6b146100d55780636171d1c9146100f55780636cefce6e14610108575b005b3480156100a5575f5ffd5b506100ae5f5481565b6040519081526020015b60405180910390f35b3480156100cc575f5ffd5b506100ae6101e3565b6100e86100e3366004610aff565b610227565b6040516100b89190610b3e565b610098610103366004610c00565b61028b565b348015610113575f5ffd5b5061009861035d565b348015610127575f5ffd5b5061013b610136366004610c6c565b6103da565b6040516001600160a01b0390911681526020016100b8565b34801561015e575f5ffd5b506100ae61016d366004610ce5565b610433565b34801561017d575f5ffd5b5060035461013b906001600160a01b031681565b34801561019c575f5ffd5b5060025461013b906001600160a01b031681565b3480156101bb575f5ffd5b506100ae6104a3565b3480156101cf575f5ffd5b5060015461013b906001600160a01b031681565b5f6102226040518060400160405280601d81526020017f657263373230313a6d6172626c65782e73746f726167652e6e6f6e63650000008152506104b2565b905090565b60603330146102715760405162461bcd60e51b8152602060048201526011602482015270496e76616c696420617574686f7269747960781b60448201526064015b60405180910390fd5b61028433848461027f6104a3565b6104c9565b9392505050565b5f6102946104a3565b90505f6102a482878787876103da565b90506001600160a01b0381166102fc5760405162461bcd60e51b815260206004820152601960248201527f5369676e6174757265207265636f76657279206661696c6564000000000000006044820152606401610268565b6001600160a01b03811630146103485760405162461bcd60e51b8152602060048201526011602482015270496e76616c6964207369676e617475726560781b6044820152606401610268565b610354818787856104c9565b50505050505050565b600180546001600160a01b031990811633908117909255600280548216329081179091556003805490921630179091555f546040519081529091907fc6b88776f1187ce2e8871e9646dd6675b15854aa0526f49e14622309875d5c4b9060200160405180910390a35f805490806103d383610d2d565b9190505550565b5f5f6103e7878787610433565b90506104288185858080601f0160208091040260200160405190810160405280939291908181526020018383808284375f9201919091525061073792505050565b979650505050505050565b5f5f4685858560405160200161044c9493929190610e69565b60405160208183030381529060405280519060200120905061049a817f19457468657265756d205369676e6564204d6573736167653a0a3332000000005f908152601c91909152603c902090565b95945050505050565b5f6104ac61075f565b54919050565b80516020918201205f19015f9081522060ff191690565b60606104d36107a5565b5f8367ffffffffffffffff8111156104ed576104ed610e88565b60405190808252806020026020018201604052801561052057816020015b606081526020019060019003908161050b5790505b5090505f5b848110156106f3576105f786868381811061054257610542610e9c565b90506020028101906105549190610eb0565b610562906020810190610ece565b87878481811061057457610574610e9c565b90506020028101906105869190610eb0565b610594906040810190610ee7565b8080601f0160208091040260200160405190810160405280939291908181526020018383808284375f920191909152508b92508a91508690508181106105dc576105dc610e9c565b90506020028101906105ee9190610eb0565b602001356107c6565b82828151811061060957610609610e9c565b602002602001018190525085858281811061062657610626610e9c565b90506020028101906106389190610eb0565b610646906020810190610ece565b6001600160a01b0316876001600160a01b03167fed7e8f919df9cc0d0ad8b4057d084ebf319b630564d5da283e14751adc931f3a88888581811061068c5761068c610e9c565b905060200281019061069e9190610eb0565b602001358989868181106106b4576106b4610e9c565b90506020028101906106c69190610eb0565b6106d4906040810190610ee7565b6040516106e393929190610f2a565b60405180910390a3600101610525565b50827f280bb3599696acbf79fb8ffcde81a57337b52500f789600fbb1cff9b4cbaba398686604051610726929190610f43565b60405180910390a295945050505050565b5f5f5f5f6107458686610866565b92509250925061075582826108af565b5090949350505050565b5f5f61079f6040518060400160405280601d81526020017f657263373230313a6d6172626c65782e73746f726167652e6e6f6e63650000008152506104b2565b92915050565b5f6107ae61075f565b8054909150815f6107be83610d2d565b919050555050565b6060814710156107f25760405163cf47918160e01b815247600482015260248101839052604401610268565b5f5f856001600160a01b0316848660405161080d9190610f5e565b5f6040518083038185875af1925050503d805f8114610847576040519150601f19603f3d011682016040523d82523d5f602084013e61084c565b606091505b509150915061085c86838361096b565b9695505050505050565b5f5f5f835160410361089d576020840151604085015160608601515f1a61088f888285856109c7565b9550955095505050506108a8565b505081515f91506002905b9250925092565b5f8260038111156108c2576108c2610f74565b036108cb575050565b60018260038111156108df576108df610f74565b036108fd5760405163f645eedf60e01b815260040160405180910390fd5b600282600381111561091157610911610f74565b036109325760405163fce698f760e01b815260048101829052602401610268565b600382600381111561094657610946610f74565b03610967576040516335e2f38360e21b815260048101829052602401610268565b5050565b6060826109805761097b82610a8f565b610284565b815115801561099757506001600160a01b0384163b155b156109c057604051639996b31560e01b81526001600160a01b0385166004820152602401610268565b5080610284565b5f80807f7fffffffffffffffffffffffffffffff5d576e7357a4501ddfe92f46681b20a0841115610a0057505f91506003905082610a85565b604080515f808252602082018084528a905260ff891692820192909252606081018790526080810186905260019060a0016020604051602081039080840390855afa158015610a51573d5f5f3e3d5ffd5b5050604051601f1901519150506001600160a01b038116610a7c57505f925060019150829050610a85565b92505f91508190505b9450945094915050565b805115610a9e57805160208201fd5b60405163d6bda27560e01b815260040160405180910390fd5b5f5f83601f840112610ac7575f5ffd5b50813567ffffffffffffffff811115610ade575f5ffd5b6020830191508360208260051b8501011115610af8575f5ffd5b9250929050565b5f5f60208385031215610b10575f5ffd5b823567ffffffffffffffff811115610b26575f5ffd5b610b3285828601610ab7565b90969095509350505050565b5f602082016020835280845180835260408501915060408160051b8601019250602086015f5b82811015610bb657603f19878603018452815180518087528060208301602089015e5f602082890101526020601f19601f83011688010196505050602082019150602084019350600181019050610b64565b50929695505050505050565b5f5f83601f840112610bd2575f5ffd5b50813567ffffffffffffffff811115610be9575f5ffd5b602083019150836020828501011115610af8575f5ffd5b5f5f5f5f60408587031215610c13575f5ffd5b843567ffffffffffffffff811115610c29575f5ffd5b610c3587828801610ab7565b909550935050602085013567ffffffffffffffff811115610c54575f5ffd5b610c6087828801610bc2565b95989497509550505050565b5f5f5f5f5f60608688031215610c80575f5ffd5b85359450602086013567ffffffffffffffff811115610c9d575f5ffd5b610ca988828901610ab7565b909550935050604086013567ffffffffffffffff811115610cc8575f5ffd5b610cd488828901610bc2565b969995985093965092949392505050565b5f5f5f60408486031215610cf7575f5ffd5b83359250602084013567ffffffffffffffff811115610d14575f5ffd5b610d2086828701610ab7565b9497909650939450505050565b5f60018201610d4a57634e487b7160e01b5f52601160045260245ffd5b5060010190565b80356001600160a01b0381168114610d67575f5ffd5b919050565b81835281816020850137505f828201602090810191909152601f909101601f19169091010190565b5f8383855260208501945060208460051b820101835f5b86811015610e5d57838303601f19018852813536879003605e19018112610dd0575f5ffd5b86016001600160a01b03610de382610d51565b16845260208181013590850152604081013536829003601e19018112610e07575f5ffd5b0160208101903567ffffffffffffffff811115610e22575f5ffd5b803603821315610e30575f5ffd5b60606040860152610e45606086018284610d6c565b60209a8b019a90955093909301925050600101610dab565b50909695505050505050565b848152836020820152606060408201525f61085c606083018486610d94565b634e487b7160e01b5f52604160045260245ffd5b634e487b7160e01b5f52603260045260245ffd5b5f8235605e19833603018112610ec4575f5ffd5b9190910192915050565b5f60208284031215610ede575f5ffd5b61028482610d51565b5f5f8335601e19843603018112610efc575f5ffd5b83018035915067ffffffffffffffff821115610f16575f5ffd5b602001915036819003821315610af8575f5ffd5b838152604060208201525f61049a604083018486610d6c565b602081525f610f56602083018486610d94565b949350505050565b5f82518060208501845e5f920191825250919050565b634e487b7160e01b5f52602160045260245ffdfea26469706673582212209c7387b99ec696c61e4f29fbd2982177de3686771de8c669ef0587925726c7e864736f6c634300081c0033",
  "linkReferences": {},
  "deployedLinkReferences": {},
  "immutableReferences": {},
  "inputSourceName": "project/contracts/BatchCallAndSponsor.sol",
  "buildInfoId": "solc-0_8_28-9fbe4c9a694dc3eab60e83eb8765b6490b1c59e4"
}