{
  "_format": "hh3-artifact-1",
  "contractName": "Voucher",
  "sourceName": "contracts/Voucher.sol",
  "abi": [
    {
      "inputs": [
        {
          "internalType": "address",
          "name": "_issuer",
          "type": "address"
        },
        {
          "internalType": "address",
          "name": "_token",
          "type": "address"
        }
      ],
      "stateMutability": "nonpayable",
      "type": "constructor"
    },
    {
      "anonymous": false,
      "inputs": [
        {
          "indexed": true,
          "internalType": "bytes32",
          "name": "voucherCode",
          "type": "bytes32"
        },
        {
          "indexed": false,
          "internalType": "uint256",
          "name": "amount",
          "type": "uint256"
        }
      ],
      "name": "VoucherIssued",
      "type": "event"
    },
    {
      "anonymous": false,
      "inputs": [
        {
          "indexed": true,
          "internalType": "bytes32",
          "name": "voucherCode",
          "type": "bytes32"
        },
        {
          "indexed": true,
          "internalType": "address",
          "name": "redeemer",
          "type": "address"
        },
        {
          "indexed": false,
          "internalType": "uint256",
          "name": "amount",
          "type": "uint256"
        }
      ],
      "name": "VoucherRedeemed",
      "type": "event"
    },
    {
      "inputs": [],
      "name": "deployer",
      "outputs": [
        {
          "internalType": "address",
          "name": "",
          "type": "address"
        }
      ],
      "stateMutability": "view",
      "type": "function"
    },
    {
      "inputs": [
        {
          "internalType": "bytes32",
          "name": "voucherCode",
          "type": "bytes32"
        },
        {
          "internalType": "uint256",
          "name": "amount",
          "type": "uint256"
        }
      ],
      "name": "issueVoucher",
      "outputs": [],
      "stateMutability": "nonpayable",
      "type": "function"
    },
    {
      "inputs": [],
      "name": "issuer",
      "outputs": [
        {
          "internalType": "address",
          "name": "",
          "type": "address"
        }
      ],
      "stateMutability": "view",
      "type": "function"
    },
    {
      "inputs": [
        {
          "internalType": "bytes32",
          "name": "voucherCode",
          "type": "bytes32"
        }
      ],
      "name": "redeemVoucher",
      "outputs": [],
      "stateMutability": "nonpayable",
      "type": "function"
    },
    {
      "inputs": [],
      "name": "rewardToken",
      "outputs": [
        {
          "internalType": "contract IERC20",
          "name": "",
          "type": "address"
        }
      ],
      "stateMutability": "view",
      "type": "function"
    },
    {
      "inputs": [
        {
          "internalType": "address",
          "name": "_issuer",
          "type": "address"
        }
      ],
      "name": "setIssuer",
      "outputs": [],
      "stateMutability": "nonpayable",
      "type": "function"
    },
    {
      "inputs": [
        {
          "internalType": "bytes32",
          "name": "",
          "type": "bytes32"
        }
      ],
      "name": "usedVouchers",
      "outputs": [
        {
          "internalType": "bool",
          "name": "",
          "type": "bool"
        }
      ],
      "stateMutability": "view",
      "type": "function"
    },
    {
      "inputs": [
        {
          "internalType": "bytes32",
          "name": "",
          "type": "bytes32"
        }
      ],
      "name": "voucherAmounts",
      "outputs": [
        {
          "internalType": "uint256",
          "name": "",
          "type": "uint256"
        }
      ],
      "stateMutability": "view",
      "type": "function"
    }
  ],
  "bytecode": "0x6080604052348015600e575f5ffd5b50604051610542380380610542833981016040819052602b91607f565b5f80546001600160a01b03199081163317909155600180546001600160a01b039485169083161790556002805492909316911617905560ab565b80516001600160a01b0381168114607a575f5ffd5b919050565b5f5f60408385031215608f575f5ffd5b6096836065565b915060a2602084016065565b90509250929050565b61048a806100b85f395ff3fe608060405234801561000f575f5ffd5b5060043610610085575f3560e01c8063bfa556e411610058578063bfa556e41461010e578063c2e9f5ab14610140578063d5f3948814610153578063f7c618c114610165575f5ffd5b80631d1438481461008957806355cc4e57146100b95780638d20fa55146100ce5780638f807a37146100fb575b5f5ffd5b60015461009c906001600160a01b031681565b6040516001600160a01b0390911681526020015b60405180910390f35b6100cc6100c73660046103d1565b610178565b005b6100ed6100dc3660046103fe565b60046020525f908152604090205481565b6040519081526020016100b0565b6100cc610109366004610415565b6101f8565b61013061011c3660046103fe565b60036020525f908152604090205460ff1681565b60405190151581526020016100b0565b6100cc61014e3660046103fe565b6102a8565b5f5461009c906001600160a01b031681565b60025461009c906001600160a01b031681565b5f546001600160a01b031633146101d65760405162461bcd60e51b815260206004820152601f60248201527f4f6e6c79206465706c6f7965722063616e206368616e6765206973737565720060448201526064015b60405180910390fd5b600180546001600160a01b0319166001600160a01b0392909216919091179055565b5f8281526003602052604090205460ff161561024f5760405162461bcd60e51b8152602060048201526016602482015275566f756368657220616c72656164792065786973747360501b60448201526064016101cd565b5f828152600360209081526040808320805460ff191690556004825291829020839055905182815283917f39fa9bd9f2a5a7e1f63b5f37c0079328e33c97bb885c420e4196b3b55ab813f0910160405180910390a25050565b5f8181526003602052604090205460ff16156102fd5760405162461bcd60e51b8152602060048201526014602482015273159bdd58da195c88185b1c9958591e481d5cd95960621b60448201526064016101cd565b5f818152600360209081526040808320805460ff191660011790556004918290529182902054600254925163a9059cbb60e01b8152339281019290925260248201819052916001600160a01b03169063a9059cbb906044016020604051808303815f875af1158015610371573d5f5f3e3d5ffd5b505050506040513d601f19601f820116820180604052508101906103959190610435565b50604051818152339083907f6e656e1d709d111f5d911e969da4c43a3d602aa41f533df902d960c033ea235f9060200160405180910390a35050565b5f602082840312156103e1575f5ffd5b81356001600160a01b03811681146103f7575f5ffd5b9392505050565b5f6020828403121561040e575f5ffd5b5035919050565b5f5f60408385031215610426575f5ffd5b50508035926020909101359150565b5f60208284031215610445575f5ffd5b815180151581146103f7575f5ffdfea2646970667358221220a27447f8bd93cc843f98cf9616f924f4ae023e33b2c6cc33f7f8ed37ed7aef8064736f6c634300081c0033",
  "linkReferences": {},
  "deployedLinkReferences": {},
  "immutableReferences": {},
  "inputSourceName": "project/contracts/Voucher.sol",
  "buildInfoId": "solc-0_8_28-dde7fb703224e5529346fbaca3c1899c96ce663e"
}